:03000000021AFEE3
:0C1AFE00787FE4F6D8FD758121021B45BD
:03000600000000F7
:1019CD004F00DE00000000000000000000000000DD
:0219DD00000008
:10177800E4900000F0A3F0A3F0A3F0A3F0A3740A90
:10178800F078067C007D017BFF7A0079067E007F79
:101798000312067EE4900006F0A3F0A37402F0782A
:1017A8000A7C007D017B017A0079067E007F0312A6
:1017B800067E90000D120860000000C8900011E439
:1017C800F0A304F0FF121C877D017F011228E2902C
:1017D80000DEE060FAE4F0900003E004F0700690A8
:1017E8000002E004F0900002E07004A3E0643270AC
:1017F8001F900004E07002A3E06015E4900002F07E
:10180800A3F0900005E024FFF0900004E034FFF01E
:10181800900004E0FEA3E0FFEE3395E0FDFC12111A
:101828001C900004E07002A3E070091229299000BE
:10183800017404F01223CE900000EFF0BFFF05A35F
:10184800E0F0801B900000E0FFB40C05E4A3F080FA
:101858000EEF900001B40D057402F08002E0F090E4
:101868000001E014602314602A14603D240360031F
:101878000217D7E4900002F0A3F0A3F0A3740AF0D3
:101888009000017401F00217D77F327E0012220BFC
:101898000217D7E4900002F0A3F0A3F0A3740AF0B3
:1018A8009000017403F00217D77F327E0012224D98
:0318B8000217D73D
:1019DF004200BA00004200BC00004100BE014200BC
:1019EF00BF00004100C1014200C200004100C4011C
:1019FF004200C500004200C700004100C90142007B
:071A0F00CA00004100CC01F8
:0C28F10043900FE590540FC454F0F59094
:0128FD0022B8
:08200400900129EEF0A3EFF0BA
:10200C009000BBE02402F09000BAE03400F0E0FA5B
:10201C00A3E0FB90012AE025E0FD900129E033FCD0
:10202C00AF03AE021206FC9000BAECF0FEA3EDF08A
:10203C00FF900129E0FCA3E0FD1206FCEF4E6004CA
:07204C0075900F227590F062
:01205300226A
:0422D100AD07AC06A3
:1022D5009000BDE004F070069000BCE004F09000B2
:1022E500BCE0FEA3E0FF1206FC9000BCECF0A3ED01
:1022F500F0A3E0FFF4F590ED4C7010EF64806005FD
:0B230500EF25E0F0229000BE7401F014
:0123100022AA
:04231100AD07AC0662
:102315009000C0E004F070069000BFE004F090006B
:10232500BFE0FEA3E0FF1206FC9000BFECF0A3EDBA
:10233500F0A3E0FFF4F590ED4C7010EF640160053B
:0B234500EFC313F0229000C17480F081
:01235000226A
:041EA600AB07AA06D6
:101EAA009000C3E004F070069000C2E004F09000D5
:101EBA00C2E0FEA3E0FFAD03AC021206FC9000C232
:101ECA00ECF0A3EDF04C7013A3E0FF64016005EFA2
:101EDA00C313F0229000C47480F022EAC313FEEB0D
:101EEA0013FFC39000C3E09F9000C2E09E400475B8
:0A1EFA0090FF229000C4E0F4F59080
:011F040022BA
:10264400E59030E002801BE59030E1047590EF22C4
:10265400E59030E2047590DF22E59030E304759054
:06266400CF227590FF2259
:072921007F0F90FA00EFF0B8
:01292800228C
:081F5E0090012BEEF0A3EFF05F
:101F66009000C6E02402F09000C5E03400F0E0FAEC
:101F7600A3E0FB90012CE025E0FD90012BE033FC73
:101F8600AF03AE021206FC9000C5ECF0FEA3EDF026
:101F9600FF90012BE0FCA3E0FD1206FCEF4E90FA49
:0A1FA600006004740FF02274F0F0E4
:011FB000220E
:04220B00AD07AC0669
:10220F009000C8E004F070069000C7E004F0900062
:10221F00C7E0FEA3E0FF1206FC9000C7ECF0A3EDB1
:10222F00F0A3E0FFF490FA00F0ED4C7010EF648033
:0D223F009000C96005E025E0F0227401F078
:01224C00226F
:04224D00AD07AC0627
:102251009000CBE004F070069000CAE004F090001A
:10226100CAE0FEA3E0FF1206FC9000CAECF0A3ED69
:10227100F0A3E0FFF490FA00F0ED4C7010EF640170
:0D2281009000CC6005E0C313F0227480F0E3
:01228E00222D
:0729290090FA0074FFF02298
:0629300090FA00EFF02216
:101C1100EF14602414603B14605224037067EB30AE
:101C2100E105ED42938004EDF45293EB30E004EDD5
:101C3100429422EDF4529422EB30E105ED42918081
:101C410004EDF45291EB30E004ED429222EDF452B6
:101C51009222EB30E105ED42958004EDF45295EBD3
:101C610030E004ED429622EDF4529622EB30E1058C
:101C7100ED42B18004EDF452B1EB30E004ED42B23B
:061C810022EDF452B22234
:10275300EF14600E14600F1460102403700FED4229
:0E2763008022ED429022ED42A022ED42B022F3
:10268E00EF14600F14601114601324037013EDF433
:10269E00528022EDF4529022EDF452A022EDF4522B
:0226AE00B02258
:1020EE00EF14601814602314602E24037038ED4230
:1020FE0080E5805D60037F01227F0022ED4290E546
:10210E00905D60037F01227F0022ED42A0E5A05D7D
:10211E0060037F01227F0022ED42B0E5B05D6003D7
:09212E007F01227F00227FFF22C5
:10254B00EF1460111460151460192403701C75804E
:10255B00FFE580FF227590FFE590FF2275A0FFE558
:0D256B00A0FF2275B0FFE5B0FF227FFF2228
:0B1A16004101200044012100000000FD
:10266A007B017D017F01121C117B017D027F01121A
:10267A001C117B017D047F01121C117B017D087FE7
:04268A0001021C111C
:0612C40090012512085400
:1012CA00900120E0B4080040030213AB9012DDF84D
:1012DA002828730212F502130502131502132C02B1
:1012EA00134302136102137802138F7D017F0112E7
:1012FA0027537D027F0112268E801E7D017F0112F7
:10130A0027537D027F01122753800E7D017F011230
:10131A00268E7D027F011227537D047F0112268EBD
:10132A00802C7D017F0112268E7D027F01122753B8
:10133A007D047F0112275380157D017F0112268EBD
:10134A007D027F0112268E7D047F011227537D08BC
:10135A007F0112268E804A7D017F0112268E7D0230
:10136A007F0112268E7D047F01122753802C7D0176
:10137A007F0112268E7D027F0112268E7D047F0157
:10138A0012268E80157D017F011227537D027F016F
:10139A0012268E7D047F0112268E7D087F01122778
:1013AA0053900121E0FCA3E0FDA3E0FEA3E02401A9
:1013BA00FFE43EFEE43DFDE43CFC900121120854AA
:1013CA00900125E0FCA3E0FDA3E0FEA3E0FF1229C3
:1013DA000BA804A905AA06AB077FFC7EAD7D807C1D
:1013EA003C120227E4FBFA797A784412011E1203AE
:1013FA007B900121E0F8A3E0F9A3E0FAA3E0FBC3A4
:10140A00120843705990012112086000000000E49C
:10141A00FFFEFDFC900125E0F8A3E0F9A3E0FAA3A2
:10142A00E0FB1202C4600D400B900120E004F0E0E2
:10143A005407F022E4FFFEFDFC900125E0F8A3E04A
:10144A00F9A3E0FAA3E0FB1202C45012900120E0D3
:0E145A00C3940150037408F0900120E014F0D8
:011468002261
:062936007F0312254B2275
:1026B000E4FDFCC3ED9FEC9E5017E4FAFB79010B9F
:1026C000BB00010ABA01F6BB63F30DBD00010C802B
:0126D000E227
:0126D10022E6
:10289000D3EF9400EE94004007EF1F70F31E80F01A
:0128A0002215
:1027DF00E4FDFCC3ED9FEC9E500EE4FB0BEBB40449
:0827EF00FB0DBD00010C80EBA5
:0127F70022BF
:10285500E4FDFCC3ED9FEC9E500A0000000DBD0099
:04286500010C80EFF3
:01286900224C
:0E28D30000007F167E037DE3DDFEDEFCDFFAF3
:0128E10022D4
:10286A0025640000000000000000000000000000D5
:03287A000000005B
:1025A500EDB40112EF25E0FF7410A807088002C3FF
:1025B50033D8FC428822EF25E0FF7410A807088075
:0925C50002C333D8FCF452882251
:10281000E4FEEF7006A28D33FE8009EFB40105A23D
:062820008FE433FEAF0659
:01282600228F
:0D28FE00EF7003C28D22EFB40102C28F22E1
:101F0500E4FEEF25E025E0FD900016E0FCA80508BD
:101F15008002C333D8FC4EFE900015E025E025E095
:101F2500FCA805088002C333D8FC4EFE900014E0DF
:101F350033333354F8FDEF25E025E0FCEDA8040824
:101F45008002C333D8FC4EFE74F0A804088002C397
:081F550013D8FC55894EF589F3
:011F5D002261
:081B8A00900013EFF0A3EDF051
:101B9200E490001BF0A3F0EDD39401500A74FF907F
:101BA200001BF0A3F0800990001BE4F0A374FFF087
:101BB200900019E0FEA3E0FBAA06E4F9F8900015F4
:101BC200E0FCA3E0FDA3E0FEA3E0FF12078DC390BB
:101BD200001CE09FFF90001BE09EFE900013E0FDC2
:101BE2007012A3E0B40206EFF58AF58C22EFF58AB3
:101BF200EEF58C22ED64017015900014E0B4020839
:0E1C0200AD07EFF58B8D8D22EFF58BEEF58D96
:011C100022B1
:101C8700900009EFF0C00778147C007D017B017A92
:101C970000790A7E007F0312067ED007121F059087
:101CA700000DE0FCA3E0FDA3E0FEA3E0FF9000151C
:101CB700120854900011E0FFA3E0900019CFF0A3A1
:101CC700EFF090000CE0FD900009E0FF121B8A90F6
:101CD700000BE0B40116900009E0FF7006F58AF5E5
:101CE7008C8009EFB40105E4F58BF58D900009E0D0
:061CF700FF7D010225A59E
:0F28E200EDB40102D2AFEF6003D2AB22D2A92234
:10278E00C39000E0E094649000DFE09400400B9072
:0B279E0000DE7401F0E4A3F0A3F022C1
:10160B00900078EEF0A3EFF0A3ECF0A3EDF0A3EADB
:04161B00F0A3EBF05D
:10161F00787E7C007D017BFF7A28796D7E007F08C4
:10162F0012067E78867C007D017BFF7A2879757E95
:10163F00007F0812067E90007AE0FEA3E0FF900084
:10164F0079E02FFF900078E03EFE747E2FF58274D4
:10165F00003EFED3E58294B4EE9400400302177768
:10166F0090002274FFF0A37428F0A3746AF0900026
:10167F007CE0FFA3E0900025CFF0A3EFF07B017A91
:10168F0000798612093CC3900079E0940A900078A3
:10169F00E064809480500B9000847430F09000864A
:1016AF00800B900086E0900084F0900087E090001F
:1016BF0085F0900083743DF090002274FFF0A374C6
:1016CF0028F0A3746AF090007AE0FFA3E090002561
:1016DF00CFF0A3EFF07B017A00798612093C9000DE
:1016EF0078E0FEA3E0FFC3940AEE64809480500B71
:1016FF009000817430F0900086800B900086E0900F
:10170F000081F0900087E0900082F0900080743D9F
:10171F00F090002274FFF0A37428F0A3746AF0A372
:10172F00EEF0A3EFF07B017A00798612093CC390AB
:10173F000079E0940A900078E064809480501090D3
:10174F00007E7430F0900086E090007FF080109063
:10175F000087E090007FF0900086E090007EF07BA5
:08176F00017A00797E120D5A87
:01177700224F
:101A210060200058000F1F2F3F4F5F6F7F8F9FAFC8
:101A3100BFCFDFEFFFEFDFCFBFAF9F8F7F6F5F4F75
:041A41003F2F1F0F05
:10287D00EF7006ED24FF92A822EFB40105ED24FFC1
:03288D0092AA22EA
:10273400EF700BED24FF92887D01E4FF800DEFB470
:0F274400010CED24FF928A7D017F0112287D2276
:03000B00021A6F67
:101A6F00C0E0C0F0C083C082C0D075D000C000C03D
:101A7F0001C002C003C004C005C006C007E4FF12C6
:101A8F0028FE9000E0E004F070069000DFE004F024
:101A9F009000E9E004F070069000E8E004F0D390C5
:101AAF0000E9E094029000E8E0648094804022E432
:101ABF00F0A3F09000E6E02458F582E43400F583BB
:101ACF00E0FF1229549000E6E004F0E0B42002E4B5
:101ADF00F012278ED007D006D005D004D003D00245
:0F1AEF00D001D000D0D0D082D083D0F0D0E03260
:03001B000220546C
:10205400C0E0C0F0C083C082C0D075D000C000C052
:1020640001C002C003C004C005C006C0077F01123E
:1020740028FE9000E0E004F070069000DFE004F039
:1020840012278ED007D006D005D004D003D002D0BA
:0E20940001D000D0D0D082D083D0F0D0E03286
:0300030002277160
:10277100C0E0C083C0829000E1E06004E4F0800624
:0D2781009000E17401F0D082D083D0E032EE
:03001300021FB118
:101FB100C0E0C0F0C083C082C0D075D000C000C0F6
:101FC10001C002C003C004C005C006C00790005391
:101FD10012086040A000007F007E007D007C00129E
:101FE1001DE19000E2120854D007D006D005D004BC
:101FF100D003D002D001D000D0D0D082D083D0F095
:03200100D0E032FA
:03002300021E4476
:101E4400C0E0C0F0C083C082C0D075D000C000C064
:101E540001C002C003C004C005C006C0077D01E480
:101E6400FF1226F4BF01199000EBE4F0A3F0FF1277
:101E740028C39000EAEFF07D01E4FF1228A1800757
:101E84007D02E4FF1226F4D007D006D005D004D09A
:101E940003D002D001D000D0D0D082D083D0F0D0F3
:021EA400E0322A
:06293C0000000000000095
:1025F600EF700FEDC4333354C0FFE598543F2FF509
:102606009822EFB40110AF05EFC4333354C0FFE591
:072616009A543F2FF59A22B0
:1018BB00900109EFF07011AF03EFC4333333548051
:1018CB00FFE587547F2FF587ED24FD700302195E2A
:0D18DB00240260030219CC900109E0706F37
:1018E800780E7C017D017BFF7A29793CFE7F03120B
:1018F800067EE490010EF0A3F0A37402F0780A7C4F
:10190800007D017B017A01790E7E007F0312067E3D
:1019180090010DE0C4F8540FC868FF90010CE0C4B2
:1019280054F048AB07FAE4F9F87F407E427D0FFC9B
:101938001221C7EE3395E0FDFC90000D120854907B
:0E1948000011E4F0A304F0FF121C87538EFE82
:0E19560022900109E0640122900109E070680E
:10196400780E7C017D017BFF7A29793FFE7F03128B
:10197400067EE490010EF0A3F0A304F0780A7C0044
:10198400FDFB7A01790E7E007F0312067E90010C26
:10199400E0FEA3E07802C333CE33CED8F9FBAA0627
:1019A400E4F9F87F407E427D0FFC1221C7EE3395A7
:1019B400E0FDFC90000D120854900011E4F0A30423
:0819C400F0FF121C87538EFE98
:0119CC0022F8
:10282700EF7002800CEFB4010DE59A640424FF9267
:072837009CED24FF929C229E
:1026F400EF700BE5985D60037F01227F0022EFB449
:10270400010BE59A5D60037F01227F00227FFF2297
:1028A100EF7005EDF4529822EFB40104EDF4529A61
:0128B1002204
:1026D200AE07EE70048D998008EEB40104AF058F49
:1026E2009BAF067D021226F4EF60F6AF067D020272
:0226F20028A11D
:1028C300EF7003AF9922EFB40103AF9B227FFF2286
:10235100900119EFF0A3E0FD1225F6E0FD90011CBC
:10236100E0FB90011EE0FFA3E090010CCFF0A3EF92
:10237100F0900119E0FF1218BB900119E0FF9001E4
:102381001DE0FD1227F8900119E0FF7D01022827C9
:1027F800D2AFEF7008D2ACED24FF92BC22EFB40147
:082808000643AF01ED42B522C9
:10239100254C640000000000000000000000000067
:1023A100000000000000000000000000000000002C
:1023B100000000000000000000000000000000001C
:0D23C100000000000000000000000000000F
:101A45004F00ED7E306D79335B5F707F7B018000E9
:021A55006F48D8
:05213700900020EFF014
:10213C00E4A3F0C2927F0CFE122855E4900021F02B
:10214C00900020E030E704D2948002C294D2937FB6
:10215C00027E00122855C2937F027E0012285590F1
:10216C000020E025E0F0A3E004F0E0C3940840D0A8
:02217C00C2940B
:01217E00223E
:10217F00E490000AF0A3F0D2947F0CFE122855E4ED
:10218F0090000AF0D2937F027E0012285590000B28
:10219F00E025E0F0309404E04401F0C2937F027E2A
:1021AF000012285590000AE004F0E0C3940840D4D0
:0721BF00C29490000BE0FF49
:0121C60022F6
:07283E00C374979FFF7D6F3B
:1028450090001FEDF012213790001FE0FF022137A5
:092918007F1512213712217F22E4
:0614690090008E120854F1
:10146F0078927C007D017BFF7A2379957E007F083F
:10147F0012067EE490009AF0789B7C007D017BFF42
:10148F007A23799DFE7F0812067EE49000A3F07FF9
:10149F00FF7EE07DF57C0590008EE0F8A3E0F9A3D8
:1014AF00E0FAA3E0FBD312082D40030215F07F8171
:1014BF007E697D677CFF90008EE0F8A3A3A3E0C355
:1014CF0012082D50030215F090002274FFF0A37440
:1014DF0023F0A37491F090008EE0FCA3E0FDA3E055
:1014EF00FEA3E0FF9000251208547B017A00799B40
:1014FF0012093CE490009AF090009AE0FFC3940820
:10150F00501B749B2FF582E43400F583E060069046
:10151F0000A3E004F090009AE004F080DB9000A3B9
:10152F00E090009AF090009AE0FFD39400500302ED
:10153F0015C5749A2FF582E43400F583E0FF642D0E
:10154F00604290009AE0FEEF24D0FFEEFD9000A3E2
:10155F00E0C39DFDE49400FCC374079DFDE49CFC77
:10156F0074922DF58274003CF583EFF074922DF593
:10157F008274003CF583E024EDF582E43400F583BA
:10158F00E0FF801D9000F7E0FF90009AE0FD9000D3
:10159F00A3E0C39DFDE49400FCC374079DFDE49C90
:1015AF00FC74922DF58274003CF583EFF090009A55
:1015BF00E014F0021534E490009AF090009AE0FEE7
:1015CF00C374979EFF74922EF582E43400F583E086
:1015DF00FD12284590009AE004F0E0C3940840DB28
:1015EF0022E490009AF090009AE0FFC39408500B09
:0B15FF0012283E90009AE004F080EB00
:01160A0022BD
:060F57009000A4120854F2
:100F5D0078A87C007D017BFF7A2379A57E007F0830
:100F6D0012067EE49000B0F078B17C007D017BFF2D
:100F7D007A2379ADFE7F0812067EE49000B9F07FEA
:100F8D00F67E3F7D1C7C469000A4E0F8A3E0F9A31B
:100F9D00E0FAA3E0FB1202C4600540030211017FD9
:100FAD005C7EFF7D797CC49000A4E0F8A3E0F9A3FA
:100FBD00E0FAA3E0FB1202C45003021101E4900019
:100FCD00B0F09000B0E0FFC39408501B74B12FF542
:100FDD0082E43400F583E060069000B9E004F090FF
:100FED0000B0E004F080DB9000B9E09000B0F0902C
:100FFD0000B0E0FFD3940050030210D674B02FF56B
:10100D0082E43400F583E0FF642D6050EF642E60C0
:10101D004B9000B0E0FF24B0F582E43400F583E09E
:10102D0024D0FEEFFD9000B9E0C39DFDE49400FCDB
:10103D00C374079DFDE49CFC74A82DF58274003CDF
:10104D00F583EEF074A82DF58274003CF583E02451
:10105D00EDF582E43400F583E0FF80589000B0E0B8
:10106D00FF24B0F582E43400F583E0FEB42E24EFC6
:10107D00FD9000B9E0C39DFDE49400FCC374079D91
:10108D00FDE49CFC74A82DF58274003CF5837480FE
:10109D00F0802DEEB42D299000F7E0FF9000B0E028
:1010AD00FD9000B9E0C39DFDE49400FCC374079D61
:1010BD00FDE49CFC74A82DF58274003CF583EFF0E3
:1010CD009000B0E014F0020FFCE49000B0F090003E
:1010DD00B0E0FEC374979EFF74A82EF582E4340031
:1010ED00F583E0FD1228459000B0E004F0E0C394D4
:1010FD000840DB22E49000B0F09000B0E0FFC39414
:0E110D0008500B12283E9000B0E004F080EB7A
:01111B0022B1
:0B0D5A009000FCEBF0A3EAF0A3E9F02E
:100D650078FF7C007D017BFF7A2379B57E007F08C3
:100D750012067EE4900107F0A3F09000FCE0FBA3CF
:100D8500E0FAA3E04A4B7003020F3CE4900107F040
:100D9500900107E0FFC3940850239000FCE0FBA3FB
:100DA500E0FAA3E0F98F827583001206BD60069014
:100DB5000108E004F0900107E004F080D3900108F9
:100DC500E0900107F0900107E0FFD3940050030283
:100DD5000F11EF24FFFFE434FFFE9000FCE0FBA3BE
:100DE500E0FAA3E0F98F828E831206BDFF642D60C1
:100DF50058EF642E6053EF643D604E900107E0FFAD
:100E05007C0024FFF582EC34FFF5831206BD24D067
:100E1500FEEFFD900108E0C39DFDE49CFCC3740753
:100E25009DFDE49CFC74FF2DF58274003CF583EE7A
:100E3500F074FF2DF58274003CF583E024EDF58216
:100E4500E43400F583E0FF8065900107E0FF24FFAF
:100E5500FDE434FFFC9000FCE0FBA3E0FAA3E0F91D
:100E65008D828C831206BDFEB42E24EFFD90010801
:100E7500E0C39DFDE49400FCC374079DFDE49CFC68
:100E850074FF2DF58274003CF5837480F08074EE58
:100E9500B42D299000F7E0FF900107E0FDA3E0C322
:100EA5009DFDE49400FCC374079DFDE49CFC74FF68
:100EB5002DF58274003CF583EFF08047900107E043
:100EC500FF24FFFDE434FFFC9000FCE0FBA3E0FA07
:100ED500A3E0F98D828C831206BDB43D269000FBFC
:100EE500E0FEEFFD900108E0C39DFDE49400FCC326
:100EF50074079DFDE49CFC74FF2DF58274003CF5A0
:100F050083EEF0900107E014F0020DCAE4900107AA
:100F1500F0900107E0FEC374979EFF74FF2EF582E3
:100F2500E43400F583E0FD122845900107E004F064
:100F3500E0C3940840DB22E4900107F0900107E04C
:100F4500FFC39408500B12283E900107E004F0807F
:010F5500EBB0
:010F56002278
:06111C00900009120854C6
:10112200780D7C007D017BFF7A2379BD7E007F08EC
:1011320012067EE4900015F078167C007D017BFF9C
:101142007A2379C5FE7F0812067EE490001EF07FA6
:10115200FF7EE07DF57C05900009E0F8A3E0F9A3AD
:10116200E0FAA3E0FBD312082D40030212A97F810B
:101172007E697D677CFF900009E0F8A3A3A3E0C32A
:1011820012082D50030212A990002274FFF0A374DA
:1011920023F0A37491F0900009E0FCA3E0FDA3E02A
:1011A200FEA3E0FF9000251208547B017A00791615
:1011B20012093CE4900015F0900015E0FFC394087A
:1011C200501B74162FF582E43400F583E06006901C
:1011D200001EE004F0900015E004F080DB90001E99
:1011E200E0900015F0900015E0FFD3940050030248
:1011F200127874152FF582E43400F583E0FF642D34
:101202006042900015E0FEEF24D0FFEEFD90001E3C
:10121200E0C39DFDE49400FCC374079DFDE49CFCC7
:10122200740D2DF58274003CF583EFF0740D2DF5ED
:101232008274003CF583E024EDF582E43400F5830A
:10124200E0FF801D9000F7E0FF900015E0FD9000A8
:101252001EE0C39DFDE49400FCC374079DFDE49C65
:10126200FC740D2DF58274003CF583EFF0900015AF
:10127200E014F00211E7E4900015F0900015E0FE92
:10128200C374979EFF740E2EF582E43400F583E05A
:10129200FD122845900015E004F0E0C3940740DBFE
:1012A2007D5B7F90022845E4900015F0900015E0E8
:1012B200FFC39408500B12283E900015E004F08002
:0112C200EB40
:0112C3002208
:10228F00E490012DF0782E7C017D017BFF7A23797C
:10229F00CDFE7F0112067EE490012DF090012DE01E
:1022AF00FEC374979EFF742E2EF582E43401F583DE
:1022BF00E0FD12284590012DE004F0E0C3940840A2
:0122CF00DB33
:0122D00022EB
:102441007F80900111E0C43354E04FFFA3E0C454F6
:10245100F04FFFA3E025E025E04FFFA3E025E04F8B
:10246100FF900116E033333354F84FFF900118E029
:052471004F90F803F09C
:012476002243
:101CFD00EB6036EF146018146028240270657401CF
:101D0D00A805088002C333D8FCFF90F800800F743B
:101D1D0001A805088002C333D8FCFF90F801E04FFD
:101D2D00F022ED25E044018036EF14601914602A8D
:101D3D002402702F7401A805088002C333D8FCF467
:101D4D00FF90F80080107401A805088002C333D8F5
:101D5D00FCF4FF90F801E05FF022AF05EF25E09075
:041D6D00F803F02265
:101D7100EF1460271460442402706274017E00A88D
:101D810005088005C333CE33CED8F9FF90F800E0C3
:101D9100FBEF5B60037F01227F002274017E00A8BC
:101DA10005088005C333CE33CED8F9FF90F801E0A2
:101DB100FBEF5B60037F01227F0022AF0574017E90
:101DC10000A807088005C333CE33CED8F9FF90F8B9
:101DD10002E0FDEF5D60037F01227F00227F002290
:0629420090F800EFF02206
:1027140090F8037490F090F800E090012FF07FFAA5
:102724007E001226B090012FE0F490F801F080E6CC
:1028B200900130EDF0EF1460071460042402700000
:0128C20022F3
:02240900AB071F
:10240B00EBC4333354C0443090F903F0ED1D70012D
:10241B001CEB14600D14601024027013ED90F90086
:10242B00800AED90F9018004ED90F902F0ECF0AF29
:06243B00037D010228B23E
:10257800EFC4333354C04430440290F903F0EF14ED
:10258800600D14601024027013ED90F900800AEDBC
:0C25980090F9018004ED90F902F0ECF0E5
:0125A4002214
:1027A900900131EFF07D011228B27F017E001227DE
:0B27B900DF900131E0FFE4FD0228B2D8
:02247700AB07B1
:10247900EBC4333354C04430440490F903F0EB14F3
:10248900600D14601024027013ED90F900800AEDBC
:1024990090F9018004ED90F902F0ECF0AF037D01B1
:0324A9000228B254
:0224AC00AB077C
:1024AE00EBC4333354C04430440690F903F0EB14BC
:1024BE00600D14601024027013ED90F900800AED87
:1024CE0090F9018004ED90F902F0ECF0AF037D017C
:0324DE000228B21F
:0224E100AB0747
:1024E300EBC4333354C04430440890F903F0EB1485
:1024F300600D14601024027013ED90F900800AED52
:1025030090F9018004ED90F902F0ECF0AF037D0146
:032513000228B2E9
:02251600AB0711
:10251800EBC4333354C04430440A90F903F0EB144D
:10252800600D14601024027013ED90F900800AED1C
:1025380090F9018004ED90F902F0ECF0AF037D0111
:032548000228B2B4
:1027C400900132EFF0E4FD1228B27F017E0012275F
:0B27D400DF900132E0FF7D010228B21F
:1025CE00E4FDFCEFC4333354C090F903F0EF146014
:1025DE000C1460092402700B90F900800390F9012D
:0725EE00E0FDFCAE04AF05A7
:0125F50022C3
:101A57005000CE1B130B031A120A021911090118A1
:071A67001008004100CD0151
:1023CE00E4FF900009F0122918EFB4FF037FFF22FB
:1023DE00E4900009F0900009E0FEC39410501674CA
:1023EE00CE2EF582E43400F583E06F60089000098C
:0A23FE00E004F080E0900009E0FF29
:0124080022B1
:1020A200E4FF900133F0122918EFF460329000CD72
:1020B200E0602CE4F0900133F0900133E0FEC39431
:1020C20010501674CE2EF582E43400F583E06F6072
:1020D20008900133E004F080E0900133E0FF22EF4A
:0B20E200B4FF069000CD7401F07FFFFA
:0120ED0022D0
:06294800E490FE00F02205
:05294E0090FE00E0FF17
:012953002261
:061DE10090004F120854AF
:101DE70012294E900057EFF090004FE0F8A3E0F96A
:101DF700A3E0FAA3E0FBA3E0FCA3E0FDA3E0FEA3BE
:101E0700E0FF120029E4FBFA797F7843120227C02A
:101E170004C005C006C007900057E0FCE412034762
:101E2700D003D002D001D00012011E90004FE0F87D
:0C1E3700A3E0F9A3E0FAA3E0FB12002DE9
:011E4300227C
:0629540090FD00EFF022EF
:100026000203E7E86480F8E933E83360110460F01E
:10003600ED33EC337009E8FCE9FDEAFEEBFF220440
:1000460060DED3EB9FEA9EE99DE8C2E78CF0C2F73B
:1000560095F0400CE8CCF8E9CDF9EACEFAEBCFFB07
:100066001203B285D0F05804700320D5B3E80470AB
:10007600075002B2D50203F192D5EC0460F7E4CC46
:10008600C0E0C398F8603B94186008400DD0E0FBD0
:100096000203C9E4FBFAC9FC8028E830E406E4C997
:1000A600FBE4CAFCE830E305E4C9CACBFCE8540724
:1000B6006010F8C3E913F9EA13FAEB13FBEC13FC2F
:1000C600D8F130F52FC3E49CFCEF9BFFEE9AFEEDD2
:1000D60099FDD0E0FBEF4E4D4C701222DB0302037C
:1000E600EEEC2CFCEF33FFEE33FEED33FDED30E7A7
:1000F600EB0203C9EF2BFFEE3AFEED39FDD0E0FB34
:1001060050130BBB00030203F1ED13FDEE13FEEFDC
:0801160013FFEC13FC0203C906
:10011E00EC4D6011E8497017ED33EC3304600DE4DB
:10012E00FCFFFEFD22E933E8330470F80203E71208
:10013E0003B258046009E4CC248150062850090209
:10014E0003F12840030203EEC0E0EB4A7044B9808D
:10015E0006D0E0FB0203DDEF4E701CBD8008EBFF06
:10016E00EAFEE9FD80EBE98DF0A4FEE5F002020760
:10017E00E9CDF9EAFEEBFFEF89F0A4FCE5F0CE89BC
:10018E00F0A42EFFE435F0CD89F0A42DFEE435F079
:10019E008067EF4E7005BD80D780C3EF8BF0A4ACA7
:1001AE00F0EE8BF0A42CFCE435F0F8EF8AF0A42CE2
:1001BE00E5F038FCE433CB8DF0A42CFCE5F03BF8F5
:1001CE00EE8AF0A42CFCE5F038F8E433CF89F0A4E5
:1001DE002CFCE5F038CF3400CE89F0A42FFFE5F0EB
:1001EE003EFEE433C98DF0A42EFEE5F039CD8AF043
:1001FE00A42FFFE5F03EFEE43DFD33D0E0FB5007BB
:10020E000BBB000F0203F1EC2CFCEF33FFEE33FEC1
:06021E00ED33FD0203C9EF
:100224000203F1EC5D046005E8590470030203E77E
:100234001203B2580460F6EC4860F2EC7004FDFE60
:10024400FF22C860DB2481C85009C39860025006AD
:100254000203EE9850CAF582E9294B4A7005AB8235
:100264000203DD75F0007C1A7880C3EF9BEE9AEDF3
:1002740099400DC3EF9BFFEE9AFEED99FDE842F025
:10028400DC23ACF0D0E0FFD0E0FED0E0FDAB822078
:10029400E7101BEB60BAEC2CFCEF33FFEE33FEED02
:1002A40033FD0203C9E803F830E705C0F075F00038
:1002B400EF2FFFEE33FEED33FD40B830E7C280AAE6
:1002C40074F8CC6480CCC86480C8F58204604FC3E1
:1002D400EB9FF5F0EA9E42F0E99D42F0E89C45F080
:1002E400603C501DE5825FFFE582D313CB5BCBF40A
:1002F4002B5582FB50280ABA002409B90020088033
:100304001DE5825BFBE582D313CF5FCFF4C3132FCC
:100314005582FF50090EBE00050DBD00010CC3EB54
:100324009FF5F0EA9E42F0E99D42F0E89C45F060BA
:0903340007CC4820E701B3EC22DC
:10033D0075F020800E75F010800575F0087D007E3B
:10034D00007F003392D530D50312081FEC334010D7
:10035D00EF33FFEE33FEED33FDEC33FCD5F0ED2244
:0E036D00E5F0247EA2D513CC92E7CDCEFF2280
:10037B00EDD2E7CD33EC3392D524814006E4FFFE7A
:10038B00FDFC22FCE4CFCECDCC24E0501174FF80D9
:10039B00EDC3CC13CCCD13CDCE13CECF13CF047076
:0703AB00F030D5DE02081F4F
:1008D700E5082422F582E43400F583E00508229038
:1008E700001F300703900022E475F00112089102FF
:1008F70006A42000E97F2ED2008018EF540F249021
:10090700D43440D4FF30040BEF24BFB41A00500393
:100917002461FFE50960021509050CE50C70020565
:100927000B30070E90001FE475F001120891EF02DB
:1009370006EA02261D7403D2078003E4C207F508FE
:1009470090001F1208A8E4F509F50BF50CE50960FE
:10095700077F2012091A80F5750AFFC201C200C27B
:1009670002C203C205C206C2081208E6FF700D30B4
:1009770007057F0012092BAF0CAE0B22B4255FC20F
:10098700D5C2041208E6FF24D0B40A00501A75F045
:100997000A780930D50508B6FF0106C6A426F62051
:1009A700D5047002D20380D924CFB41A00EF5004C3
:1009B700C2E5D204020C1DD20180C6D20080C0D28B
:1009C7000280BCD2D580BAD20580B47F2012091A22
:1009D7002002077401B5090040F11208D7FF120978
:1009E7001A020954D208D20680951208D7FB1208BA
:1009F700D7FA1208D7F94A4B7006791B7A0D7BFF95
:100A070020022EE509602A7E008E82758300120679
:100A1700BD60060EEE650A70F0C2D5EBC0E0EAC015
:100A2700E0E9C0E0EE120C7ED0E0F9D0E0FAD0E0C9
:100A3700FB1206A4FF60AAEBC0E0EAC0E0E9C0E051
:100A470012091AD0E02401F9D0E03400FAD0E0FB13
:100A5700E50A0460DCD50AD98087D20280A2120C8D
:100A67006060F7E50A7001041203FCA90A600DE54E
:100A77000A600914F50A120D08EF60F3EA30E7027D
:100A8700F404C3995079EAF4250A0430E701E40431
:100A9700F50A800D120C6060C1EA050A250A1203E7
:100AA700FCEA90004EF030E701E4250A04D50A0479
:100AB70020050114120C7EE4C0E0120D0890004ED0
:100AC700E0601320E70714F0120902802204F0D037
:100AD700E014C0E07F00120902E50A60071208F976
:100AE700150A800B3005031208F9D0E0020954D02B
:100AF700E00480C4120C60609EE50A041203FC90B7
:100B0700004EEAF0E50A2005026001042404120CF5
:010B17007E5F
:100B180074FF04C0E0120D08120902E50A2005025C
:100B280060031208F9D0E0B50AE87F4512090C9075
:100B3800004EE07F2B30E7047F2DF404C0E012095B
:100B48001AD0E075F00A84C0F0120903D0E0120947
:100B580003020954791080027908C206C208800885
:100B6800D2D5790A8004790AC2D5E50A047002F55B
:100B78000AE4FAFDFEFF1208D7FC7B0820011312D5
:100B880008D7FD7B1030000A1208D7FE1208D7FFDD
:100B98007B20EC3382D592D55013C3E43000069FF6
:100BA800FFE49EFEE42001039DFDE49CFCE4CBF8F9
:100BB800C201EC700CCFCECDCCE824F8F870F380ED
:100BC80017C3EF33FFEE33FEED33FDEC33FCEB33AD
:100BD800FB994002FB0FD8E9EB300105F8D0E0C4DF
:100BE80048B201C0E00AEC4D4E4F78207B0070C23D
:100BF800EAB50A0040BCC0E0120C80D0F0D0E0207A
:100C08000104C4C0E0C4B201C0F0120903D0F0D599
:100C1800F0EB0209541208B109F1530B5C5809C2F0
:100C28004C09BE420B604F0B68440B684909D74317
:100C38000B6E550A9B460AFB450A65470D3B500952
:100C4800C62D09CA2E09ED2B09CE2309EB200D2448
:100C58002A098648000009E5E50AB4FF03750A0673
:100C68001208D7FC1208D7FD1208D7FE1208D7FFC2
:100C7800900047020439790AA2D5200314300509E7
:100C8800B910020404B9080104A2D52006025001D3
:100C9800042002689202B509005034C0E07F203079
:100CA80003197F30A20272067205500F120CD7C2C8
:100CB80002C206C205C2087F30800F300503E9C0B2
:100CC800E012091A300503D0E0F9D0E0B509CC30BC
:100CD80005177F30B9100C12091A7F583004077FA6
:100CE800788003B9080312091A3002057F2D02091A
:100CF8001A7F202008F87F2B2006F322920280CF4B
:100D08007F00B40700500B2447F582E43400F583D4
:100D1800E0FF22286E756C6C2900D2011208D730CA
:100D280001F8C201780930D50108F60209862D506C
:100D38004349581208D72403B405004001E4900D34
:100D4800369312090B743A12090BD203750904027F
:020D58000B5C32
:0D290B00ED33EC3360065004EC6480FC22D8
:1003B200E9D2E7C933E833F892D5EDD2E7CD33EC91
:0703C20033FC5002B2D5220A
:1003C900EC30E7100FBF000C0EBE00080DBD000495
:1003D9000BEB6014A2D5EB13FCED92E7FD2274FF41
:1003E900FCFDFEFF22E480F8A2D574FF13FC7D809A
:0303F900E480EFAE
:1003FC00F920E73624F950037907E4F42402FBE5ED
:10040C0082158270021583DBF6E024FB501BE96039
:10041C0014E4F0E582158270021583E004F0B40A4E
:0D042C0008E4F0D9EE7401F00A22C2D522D6
:10043900ED33EC3392D5FA602AB4FF33EDC2E77B92
:10044900FF60067A04795EE4227A04796720D5048C
:100459007A047962224E614E002B494E46002D499D
:100469004E4600E47A08F0A3DAFC7B00740722C048
:1004790083C082ECC0E0EDC0E0EEC0E0EFC0E0EA8E
:1004890075F010A4CAABF075F04DA42BFBE435F060
:10049900FCEA2410FAEB34C5FBEC34D9FCEDC2E7D5
:1004A900FF75F056A4F42411C5F0F434C58FF0A4F7
:1004B9002AE5F03BE43CF020E71412056ED0E0FF9A
:1004C900D0E0FED0E0FDD0E0FC1202278014F40455
:1004D90012056ED0E0FFD0E0FED0E0FDD0E0FC12C6
:1004E900011ED082D083E0FAEDD2E7CD33EC33247C
:1004F90082FBE4C3CF33CFCE33CECD33CD33DBF361
:100509007B0775F00A846004F0A31B0AE5F0F0A3E9
:100519008FF0740AA4FFACF08EF0740AA42CFEAC20
:10052900F050010C8DF0740AA42CFDE435F0F0A311
:05053900DBDE74072267
:10053E003F8000004120000042C80000447A0000C5
:10054E00461C400047C35000497424004B18968047
:10055E004CBEBC205A0E1BCA6753C21C749DC5AE3E
:10056E00FB60065407601C232312059CEB54386075
:10057E000912058812059712011EECF8EDF9EEFA34
:10058E00EFCB22EB12059780F1543803241C900513
:10059E003EFE93FC0EEE93FD0EEE930ECE93FF22D7
:101B0A00021778E493A3F8E493A34003F68001F262
:101B1A0008DFF48029E493A3F85407240CC8C333DC
:101B2A00C4540F4420C8834004F456800146F6DFAB
:101B3A00E4800B01020408102040809019CDE47E55
:101B4A00019360BCA3FF543F30E509541FFEE493A0
:101B5A00A360010ECF54C025E060A840B8E493A367
:101B6A00FAE493A3F8E493A3C8C582C8CAC583CA92
:101B7A00F0A3C8C582C8CAC583CADFE9DEE780BE4A
:011A6E000077
:1005AE00E709F608DFFA8046E709F208DFFA803E2F
:1005BE0088828C83E709F0A3DFFA8032E309F6081C
:1005CE00DFFA8078E309F208DFFA807088828C8384
:1005DE00E309F0A3DFFA806489828A83E0A3F60838
:1005EE00DFFA805889828A83E0A3F208DFFA804C12
:1005FE0080D280FA80C680D4806980F280338010E9
:10060E0080A680EA809A80A880DA80E280CA803351
:10061E0089828A83ECFAE493A3C8C582C8CCC583C9
:10062E00CCF0A3C8C582C8CCC583CCDFE9DEE78099
:10063E000D89828A83E493A3F608DFF9ECFAA9F018
:10064E00EDFB2289828A83ECFAE0A3C8C582C8CC6E
:10065E00C583CCF0A3C8C582C8CCC583CCDFEADE87
:10066E00E880DB89828A83E493A3F208DFF980CCE9
:10067E0088F0EF60010E4E60C388F0ED2402B404E2
:10068E000050B9F582EB2402B4040050AF23234589
:06069E0082239005FE73AB
:1006A400BB010689828A83E0225002E722BBFE0254
:0906B400E32289828A83E4932287
:1006BD00BB010CE58229F582E5833AF583E02250F2
:1006CD0006E92582F8E622BBFE06E92582F8E2223C
:0D06DD00E58229F582E5833AF583E4932256
:1006EA00BB010689828A83F0225002F722BBFE01EF
:0206FA00F322E9
:1006FC00BC000BBE0029EF8DF084FFADF022E4CCE2
:10070C00F875F008EF2FFFEE33FEEC33FCEE9DECAA
:10071C00984005FCEE9DFE0FD5F0E9E4CEFD22EDF0
:10072C00F8F5F0EE8420D21CFEADF075F008EF2F3A
:10073C00FFED33FD4007985006D5F0F222C398FD2B
:05074C000FD5F0EA22C8
:1007510075F008758200EF2FFFEE33FECD33CDCC5F
:1007610033CCC58233C5829BED9AEC99E5829840E2
:100771000CF582EE9BFEED9AFDEC99FC0FD5F0D6BF
:10078100E4CEFBE4CDFAE4CCF9A88222B800C1B9E9
:100791000059BA002DEC8BF084CFCECDFCE5F0CB27
:1007A100F97818EF2FFFEE33FEED33FDEC33FCEB60
:1007B10033FB10D703994004EB99FB0FD8E5E4F91B
:1007C100FA227818EF2FFFEE33FEED33FDEC33FC08
:1007D100C933C910D7059BE99A4007EC9BFCE99AFC
:1007E100F90FD8E0E4C9FAE4CCFB2275F010EF2F41
:1007F100FFEE33FEED33FDCC33CCC833C810D70741
:100801009BEC9AE899400AED9BFDEC9AFCE899F87B
:0E0811000FD5F0DAE4CDFBE4CCFAE4C8F9220E
:1021C700C2D5E830E70FB2D5E4C39BFBE49AFAE443
:1021D70099F9E498F8EC30E717B2D51221FD120708
:1021E7008DE4C39BFBE49AFAE499F9E498F8800339
:1021F70012078D30D50DE4C39FFFE49EFEE49DFDDD
:04220700E49CFC2235
:0E081F00C3E49FFFE49EFEE49DFDE49CFC22EA
:10082D00EB9FF5F0EA9E42F0E99D42F0EC6480C842
:06083D0064809845F022E2
:10084300EB9FF5F0EA9E42F0E99D42F0E89C45F00B
:010853002282
:0C085400ECF0A3EDF0A3EEF0A3EFF02217
:10086000A8828583F0D083D082120877120877128D
:100870000877120877E473E493A3C583C5F0C583B2
:10088000C8C582C8F0A3C583C5F0C583C8C582C8E2
:010890002245
:10089100F8E0FBA3A3E0F925F0F0E58215827002F0
:0708A1001583E0FA38F02294
:0908A800EBF0A3EAF0A3E9F02251
:1008B100D083D082F8E4937012740193700DA3A3D6
:1008C10093F8740193F5828883E4737402936860EA
:0608D100EFA3A3A380DFEA
:10261D00EFB40A07740D122628740A309811A89980
:10262D00B8130CC2983098FDA899C298B811F6301D
:07263D0099FDC299F59922F5
:00000001FF
